{
  "contractName": "Election",
  "abi": [
    {
      "constant": true,
      "inputs": [],
      "name": "candidatesCount",
      "outputs": [
        {
          "name": "",
          "type": "uint256"
        }
      ],
      "payable": false,
      "stateMutability": "view",
      "type": "function"
    },
    {
      "constant": true,
      "inputs": [
        {
          "name": "",
          "type": "uint256"
        }
      ],
      "name": "candidates",
      "outputs": [
        {
          "name": "id",
          "type": "uint256"
        },
        {
          "name": "name",
          "type": "string"
        },
        {
          "name": "voteCount0",
          "type": "uint256"
        },
        {
          "name": "voteCount1",
          "type": "uint256"
        },
        {
          "name": "voteCount2",
          "type": "uint256"
        }
      ],
      "payable": false,
      "stateMutability": "view",
      "type": "function"
    },
    {
      "constant": true,
      "inputs": [
        {
          "name": "",
          "type": "address"
        }
      ],
      "name": "voters",
      "outputs": [
        {
          "name": "",
          "type": "bool"
        }
      ],
      "payable": false,
      "stateMutability": "view",
      "type": "function"
    },
    {
      "inputs": [],
      "payable": false,
      "stateMutability": "nonpayable",
      "type": "constructor"
    },
    {
      "anonymous": false,
      "inputs": [
        {
          "indexed": true,
          "name": "_candidateId",
          "type": "uint256[]"
        }
      ],
      "name": "votedEvent",
      "type": "event"
    },
    {
      "constant": false,
      "inputs": [
        {
          "name": "_candidateIds",
          "type": "uint256[]"
        }
      ],
      "name": "vote",
      "outputs": [],
      "payable": false,
      "stateMutability": "nonpayable",
      "type": "function"
    }
  ],
  "bytecode": "0x608060405234801561001057600080fd5b5061005e6040805190810160405280600b81526020017f43616e6469646174652031000000000000000000000000000000000000000000815250610197640100000000026401000000009004565b6100ab6040805190810160405280600b81526020017f43616e6469646174652032000000000000000000000000000000000000000000815250610197640100000000026401000000009004565b6100f86040805190810160405280600b81526020017f43616e6469646174652033000000000000000000000000000000000000000000815250610197640100000000026401000000009004565b6101456040805190810160405280600b81526020017f43616e6469646174652034000000000000000000000000000000000000000000815250610197640100000000026401000000009004565b6101926040805190810160405280600b81526020017f43616e6469646174652035000000000000000000000000000000000000000000815250610197640100000000026401000000009004565b6102da565b60026000815480929190600101919050555060a0604051908101604052806002548152602001828152602001600081526020016000815260200160008152506000806002548152602001908152602001600020600082015181600001556020820151816001019080519060200190610210929190610235565b5060408201518160020155606082015181600301556080820151816004015590505050565b828054600181600116156101000203166002900490600052602060002090601f016020900481019282601f1061027657805160ff19168380011785556102a4565b828001600101855582156102a4579182015b828111156102a3578251825591602001919060010190610288565b5b5090506102b191906102b5565b5090565b6102d791905b808211156102d35760008160009055506001016102bb565b5090565b90565b61050e806102e96000396000f300608060405260043610610062576000357c0100000000000000000000000000000000000000000000000000000000900463ffffffff1680632d35a8a2146100675780633477ee2e14610092578063a3ec138d14610154578063ce11f2bb146101af575b600080fd5b34801561007357600080fd5b5061007c610215565b6040518082815260200191505060405180910390f35b34801561009e57600080fd5b506100bd6004803603810190808035906020019092919050505061021b565b6040518086815260200180602001858152602001848152602001838152602001828103825286818151815260200191508051906020019080838360005b838110156101155780820151818401526020810190506100fa565b50505050905090810190601f1680156101425780820380516001836020036101000a031916815260200191505b50965050505050505060405180910390f35b34801561016057600080fd5b50610195600480360381019080803573ffffffffffffffffffffffffffffffffffffffff1690602001909291905050506102e9565b604051808215151515815260200191505060405180910390f35b3480156101bb57600080fd5b5061021360048036038101908080359060200190820180359060200190808060200260200160405190810160405280939291908181526020018383602002808284378201915050505050509192919290505050610309565b005b60025481565b6000602052806000526040600020600091509050806000015490806001018054600181600116156101000203166002900480601f0160208091040260200160405190810160405280929190818152602001828054600181600116156101000203166002900480156102cd5780601f106102a2576101008083540402835291602001916102cd565b820191906000526020600020905b8154815290600101906020018083116102b057829003601f168201915b5050505050908060020154908060030154908060040154905085565b60016020528060005260406000206000915054906101000a900460ff1681565b600160003373ffffffffffffffffffffffffffffffffffffffff1673ffffffffffffffffffffffffffffffffffffffff16815260200190815260200160002060009054906101000a900460ff1615151561036257600080fd5b60018060003373ffffffffffffffffffffffffffffffffffffffff1673ffffffffffffffffffffffffffffffffffffffff16815260200190815260200160002060006101000a81548160ff0219169083151502179055506000808260008151811015156103cb57fe5b9060200190602002015181526020019081526020016000206002016000815480929190600101919050555060008082600181518110151561040857fe5b9060200190602002015181526020019081526020016000206003016000815480929190600101919050555060008082600281518110151561044557fe5b906020019060200201518152602001908152602001600020600401600081548092919060010191905055508060405180828051906020019060200280838360005b838110156104a1578082015181840152602081019050610486565b5050505090500191505060405180910390207fa6c7426a815a14c53aa622dc6aa839e1e21e7a3071b913967b7b994e98cc405c60405160405180910390a2505600a165627a7a72305820fd26edd7df03ad08b48c8b11ce5cd565bc24a85bb3f5c6b6dbc85c91fa3f81a60029",
  "source": "pragma solidity ^0.4.24;\n\ncontract Election {\n    // 候选人model\n\tstruct Candidate {\n        uint id;\n        string name;\n        // uint[] voteCount;\n        uint voteCount0;\n        uint voteCount1;\n        uint voteCount2;\n    }\n\n    // 候选人getter\n    mapping(uint => Candidate) public candidates;\n    // 已投票投票人\n    mapping(address => bool) public voters;\n    // 候选人人数\n    uint public candidatesCount;\n\n    event votedEvent (\n        uint[] indexed _candidateId\n    );\n\n \tfunction Election () public {\n        addCandidate(\"Candidate 1\");\n        addCandidate(\"Candidate 2\");\n        addCandidate(\"Candidate 3\");\n        addCandidate(\"Candidate 4\");\n        addCandidate(\"Candidate 5\");\n    }\n\n    function addCandidate (string _name) private {\n        candidatesCount ++; // 新候选人ID\n        // uint[] storage _voteCount;\n        // for (uint i = 0; i < m; i++) {\n        //     _voteCount.push(uint(0));\n        // }\n        candidates[candidatesCount] = Candidate(candidatesCount, _name, 0, 0, 0);\n    }\n\n    function vote (uint[] _candidateIds) public {\n        // 检查投票人资格\n        require(!voters[msg.sender]);\n        // 记录投票人已投过票\n        voters[msg.sender] = true;\n        // Borda票数统计\n        // for(uint i = 0; i < _candidateIds.length; i++) {\n        //     candidates[_candidateIds[i]].voteCount[i]++;\n        // }\n        candidates[_candidateIds[0]].voteCount0++;\n        candidates[_candidateIds[1]].voteCount1++;\n        candidates[_candidateIds[2]].voteCount2++;\n        // 触发投票事件\n        votedEvent(_candidateIds);\n    }\n}",
  "sourcePath": "/Users/jingy/Projects/ethereum/election/contracts/Election.sol",
  "compiler": {
    "name": "solc",
    "version": "0.4.24+commit.e67f0147.Emscripten.clang"
  },
  "schemaVersion": "2.0.1",
  "updatedAt": "2018-12-08T10:13:59.593Z"
}